S01900006D6F683030385F6C6162325F70617274322E7372656327
S113000045C0000060C000005EC000005CC000008D
S11300105AC0000058C0000056C0000054C0000080
S113002052C0000050C000004EC000004CC0000090
S11300304AC00000C4C0000046C0000044C0000024
S113004042C0000040C000003EC000003CC00000B0
S11300503AC0000038C0000036C0000034C00000C0
S113006032C0000030C000002EC000002CC00000D0
S11300702AC0000028C0000026C0000024C00000E0
S113008022C0000020C000001EC0000011241FBEBA
S1130090CFEFD0E4DEBFCDBF11E0A0E0B1E0E8E7F0
S11300A0F3E000E00BBF02C007900D92A430B1074B
S11300B0D9F721E0A4E0B1E001C01D92AC30B20751
S11300C0E1F739D157C19CCF813081F0E1ECF0E008
S11300D0808188618083E2ECF0E0808186608083A7
S11300E083E38093C4001092C5000895E9ECF0E026
S11300F0808188618083EAECF0E08081866080837F
S113010083E38093CC001092CD000895613041F0D8
S1130110E0ECF0E0908195FFFDCF8093C600089558
S1130120E8ECF0E0908195FFFDCF8093CE00089538
S1130130813041F0E0ECF0E080818823ECF780919D
S1130140C6000895E8ECF0E080818823ECF7809104
S1130150CE00089560930001709301018093020121
S11301609093030160930601709307018093080143
S11301709093090108958BE0809381008DE790E0CE
S1130180909389008093880082E080936F0010929E
S11301908500109284008091000190910101A0914A
S11301A00201B09103018093060190930701A0938B
S11301B00801B09309018FB780688FBF08951F921B
S11301C00F920FB60F9211248F939F93AF93BF9307
S11301D08091060190910701A0910801B091090155
S11301E00197A109B1098093060190930701A09397
S11301F00801B0930901892B8A2B8B2B99F481E098
S113020080930A018091000190910101A091020163
S1130210B09103018093060190930701A093080114
S1130220B0930901BF91AF919F918F910F900FBE31
S11302300F901F90189580910B01813071F018F088
S1130240823039F141C080910401813009F042C00B
S113025080930B011092050146C080910501823301
S113026029F080910401813059F43DC0809104014A
S1130270813031F482E080930B011092050148C073
S11302808091040181112FC010920B01109205017D
S113029021C080910501823329F0809104018130CD
S11302A051F436C080910401813029F480930B010C
S11302B01092050118C080910401811129C0109287
S11302C00B011092050106C0813069F018F08230EC
S11302D089F51EC08091C00088231CF480E028DFCB
S11302E082B918B8089581E088B98091C80085FF63
S11302F003C061E081E00ADF8091C80086FF02C08C
S113030081E082B9809105018F5F80930501089592
S113031081E088B98091C80085FF03C061E080E076
S1130320F5DE8091C80086FD12B8809105018F5FCB
S11303308093050108958FEF81B912B814B885B977
S113034087B918B864E170E080E090E003DF13DF60
S113035080E0BADE81E0B8DE10920B0183B18095B3
S11303608093040168DF80910A018823E1F31092ED
S10B03700A01F4CFF894FFCF59
S1070378010000007C
S9030000FC
