S01900006D6F683030385F6C6162325F70617274332E7372656326
S113000045C0000060C000005EC000005CC000008D
S11300105AC0000058C0000056C0000054C0000080
S113002052C0000050C000004EC000004CC0000090
S11300304AC00000C4C0000046C0000044C0000024
S113004042C0000040C000003EC000003CC00000B0
S11300503AC0000038C0000036C0000034C00000C0
S113006032C0000030C000002EC000002CC00000D0
S11300702AC0000028C0000026C0000024C00000E0
S113008022C0000020C000001EC0000011241FBEBA
S1130090CFEFD0E4DEBFCDBF11E0A0E0B1E0ECEEE5
S11300A0F3E000E00BBF02C007900D92A430B1074B
S11300B0D9F721E0A4E0B1E001C01D92AB30B20752
S11300C0E1F777D191C19CCF813081F0E1ECF0E090
S11300D0808188618083E2ECF0E0808186608083A7
S11300E083E38093C4001092C5000895E9ECF0E026
S11300F0808188618083EAECF0E08081866080837F
S113010083E38093CC001092CD000895613041F0D8
S1130110E0ECF0E0908195FFFDCF8093C600089558
S1130120E8ECF0E0908195FFFDCF8093CE00089538
S1130130813041F0E0ECF0E080818823ECF780919D
S1130140C6000895E8ECF0E080818823ECF7809104
S1130150CE00089560930001709301018093020121
S11301609093030160930501709306018093070146
S11301709093080108958BE0809381008DE790E0CF
S1130180909389008093880082E080936F0010929E
S11301908500109284008091000190910101A0914A
S11301A00201B09103018093050190930601A0938D
S11301B00701B09308018FB780688FBF08951F921D
S11301C00F920FB60F9211248F939F93AF93BF9307
S11301D08091050190910601A0910701B091080159
S11301E00197A109B1098093050190930601A09399
S11301F00701B0930801892B8A2B8B2B99F481E09A
S1130200809309018091000190910101A091020164
S1130210B09103018093050190930601A093070117
S1130220B0930801BF91AF919F918F910F900FBE32
S11302300F901F90189580910A01813021F120F0D0
S1130240823009F442C062C08091C00088230CF45B
S113025064C08091C000882334F080910401863901
S113026009F05BC093C08091C00088230CF455C092
S113027080910401863909F050C081E080930A011D
S1130280109204015BC08091C000882334F08091F7
S11302900401823309F052C07FC08091C0008823DA
S11302A054F080910401823331F482E080930A0196
S11302B01092040158C08091C00088230CF03EC005
S11302C010920A011092040128C08091C000882372
S11302D034F080910401823309F045C063C08091F9
S11302E0C000882354F080910401823331F481E00A
S11302F080930A011092040121C08091C0008823D8
S113030094F510920A011092040107C08130B1F0F3
S113031020F0823009F04CC026C08091C0008823B0
S113032034F480E005DF82B91092040105C08091A5
S113033004018F5F8093040118B8089581E088B99F
S11303408091C80085FF03C061E081E0DFDE809119
S1130350C80086FF02C081E082B9809104018F5FEA
S113036080930401089581E088B98091C80085FFD5
S113037003C061E080E0CADE8091C80086FD12B847
S1130380809104018F5F8093040108958091C000DF
S113039088230CF4C2CF71CF8091C00088230CF461
S11303A08ACF83CF8091C00088230CF4A6CF9FCF3F
S11303B008958FEF81B912B814B885B987B918B800
S11303C064E170E080E090E0C5DED5DE80E07CDEB4
S11303D081E07ADE10920A012EDF809109018823E0
S10F03E0E1F310920901F8CFF894FFCF6C
S10703EC0100000008
S9030000FC
