:1000000045C000004BC0000049C0000047C00000D0
:1000100045C0000043C0000041C000003FC00000D8
:100020003DC000003BC0000039C0000037C00000E8
:1000300035C0000033C0000031C000002FC00000F8
:100040002DC000002BC0000029C0000027C0000008
:1000500025C0000023C0000021C000001FC0000018
:100060001DC000001BC0000019C0000017C0000028
:1000700015C0000013C0000011C000000FC0000038
:100080000DC000000BC0000009C0000011241FBEFD
:10009000CFEFD0E4DEBFCDBF36D045C0B1CF813089
:1000A00081F0E1ECF0E0808188618083E2ECF0E0B7
:1000B00080818660808383E38093C4001092C500B2
:1000C0000895E9ECF0E0808188618083EAECF0E05B
:1000D00080818660808383E38093CC001092CD0082
:1000E0000895813041F0E0ECF0E080818823ECF766
:1000F0008091C6000895E8ECF0E080818823ECF759
:100100008091CE0008958FEF81B912B880E0C7DFEB
:1001100000EC10E0F801808188231CF480E0E1DF2E
:0A012000C82FC2B9F7CFF894FFCF43
:00000001FF
